{
  "transactions": [
    {
      "hash": "0x5ed3a8497c38f8c239f30103b538d0e70d6fb0cd52ab36d2d6c7cf9503ab2da9",
      "transactionType": "CALL",
      "contractName": null,
      "contractAddress": "0xf9ffdd075ce3f3c49d6a9ae4c103cbd28222d952",
      "function": "mintNft(string)",
      "arguments": [
        "ipfs://bafybeig37ioir76s7mg5oobetncojcm3c3hxasyd4rvid4jqhy4gkaheg4/?filename=0-PUG.json"
      ],
      "transaction": {
        "from": "0x4da7f8cf87f407b40772bda5e8b6a9e79255c396",
        "to": "0xf9ffdd075ce3f3c49d6a9ae4c103cbd28222d952",
        "gas": "0x322bd",
        "value": "0x0",
        "input": "0xda86f4a900000000000000000000000000000000000000000000000000000000000000200000000000000000000000000000000000000000000000000000000000000057697066733a2f2f62616679626569673337696f6972373673376d67356f6f6265746e636f6a636d3363336878617379643472766964346a71687934676b61686567342f3f66696c656e616d653d302d5055472e6a736f6e000000000000000000",
        "nonce": "0x15",
        "chainId": "0xaa36a7"
      },
      "additionalContracts": [],
      "isFixedGasLimit": false
    }
  ],
  "receipts": [
    {
      "status": "0x1",
      "cumulativeGasUsed": "0x1016a5b",
      "logs": [
        {
          "address": "0xf9ffdd075ce3f3c49d6a9ae4c103cbd28222d952",
          "topics": [
            "0xddf252ad1be2c89b69c2b068fc378daa952ba7f163c4a11628f55a4df523b3ef",
            "0x0000000000000000000000000000000000000000000000000000000000000000",
            "0x0000000000000000000000004da7f8cf87f407b40772bda5e8b6a9e79255c396",
            "0x0000000000000000000000000000000000000000000000000000000000000001"
          ],
          "data": "0x",
          "blockHash": "0xfbf819cd0113d46d7833a8eeb9bc3ba0eb1983d07aade497c9204999c035b944",
          "blockNumber": "0xa3bae9",
          "blockTimestamp": "0x69ecd894",
          "transactionHash": "0x5ed3a8497c38f8c239f30103b538d0e70d6fb0cd52ab36d2d6c7cf9503ab2da9",
          "transactionIndex": "0x69",
          "logIndex": "0x250",
          "removed": false
        }
      ],
      "logsBloom": "0x00000000000000000000000000000000000000000000000000000000000000000000000000000000000020000000000000000000000800000000000000040000000000400000000000000008000000000000000000040000000000000000008000000000020008000000000000000800000000000000000000000010000000000000000000000000000000000000000000000000000000000000000000000000000000004000000000000000000000000000000000000000000000000000000000000002000000000000000000000000000000000000000000000000000060000000000000000000000000000000000000000000000000000000000000000000",
      "type": "0x2",
      "transactionHash": "0x5ed3a8497c38f8c239f30103b538d0e70d6fb0cd52ab36d2d6c7cf9503ab2da9",
      "transactionIndex": "0x69",
      "blockHash": "0xfbf819cd0113d46d7833a8eeb9bc3ba0eb1983d07aade497c9204999c035b944",
      "blockNumber": "0xa3bae9",
      "gasUsed": "0x2452c",
      "effectiveGasPrice": "0x403d18",
      "from": "0x4da7f8cf87f407b40772bda5e8b6a9e79255c396",
      "to": "0xf9ffdd075ce3f3c49d6a9ae4c103cbd28222d952",
      "contractAddress": null
    }
  ],
  "libraries": [],
  "pending": [],
  "returns": {},
  "timestamp": 1777129620785,
  "chain": 11155111,
  "commit": null
}