{
  "transactions": [
    {
      "hash": "0x5ce1f58c5f0d4794496bad707cb9bbee164d31a507ec33c1855cefcef3405f6c",
      "transactionType": "CALL",
      "contractName": null,
      "contractAddress": "0xf9ffdd075ce3f3c49d6a9ae4c103cbd28222d952",
      "function": "mintNft(string)",
      "arguments": [
        "ipfs://bafybeig37ioir76s7mg5oobetncojcm3c3hxasyd4rvid4jqhy4gkaheg4/?filename=0-PUG.json"
      ],
      "transaction": {
        "from": "0x4da7f8cf87f407b40772bda5e8b6a9e79255c396",
        "to": "0xf9ffdd075ce3f3c49d6a9ae4c103cbd28222d952",
        "gas": "0x3db44",
        "value": "0x0",
        "input": "0xda86f4a900000000000000000000000000000000000000000000000000000000000000200000000000000000000000000000000000000000000000000000000000000057697066733a2f2f62616679626569673337696f6972373673376d67356f6f6265746e636f6a636d3363336878617379643472766964346a71687934676b61686567342f3f66696c656e616d653d302d5055472e6a736f6e000000000000000000",
        "nonce": "0x14",
        "chainId": "0xaa36a7"
      },
      "additionalContracts": [],
      "isFixedGasLimit": false
    }
  ],
  "receipts": [
    {
      "status": "0x1",
      "cumulativeGasUsed": "0x17cf57a",
      "logs": [
        {
          "address": "0xf9ffdd075ce3f3c49d6a9ae4c103cbd28222d952",
          "topics": [
            "0xddf252ad1be2c89b69c2b068fc378daa952ba7f163c4a11628f55a4df523b3ef",
            "0x0000000000000000000000000000000000000000000000000000000000000000",
            "0x0000000000000000000000004da7f8cf87f407b40772bda5e8b6a9e79255c396",
            "0x0000000000000000000000000000000000000000000000000000000000000000"
          ],
          "data": "0x",
          "blockHash": "0xe0b1e6a6a1b56fe61f7808c753511e40462af197e0801cbb084ce96ece83768c",
          "blockNumber": "0xa3babc",
          "blockTimestamp": "0x69ecd66c",
          "transactionHash": "0x5ce1f58c5f0d4794496bad707cb9bbee164d31a507ec33c1855cefcef3405f6c",
          "transactionIndex": "0x8c",
          "logIndex": "0x3ba",
          "removed": false
        }
      ],
      "logsBloom": "0x00000000000000000000000000000000000000000000000000000000000000000000000000000000000020000000000000000000000800000000000000000000000000400000000000000008000000000000000000000000000000000000008000000000020008000000000000000800000000000000000000000010000000000000000000000000000000000000000000000000000000000000000000000000000000004000000000000000000000000000000000000000000000000000000000000002000000000000000000000000000000000000000000000000000020000000000000000000000000000000000000000000000000000000000000000000",
      "type": "0x2",
      "transactionHash": "0x5ce1f58c5f0d4794496bad707cb9bbee164d31a507ec33c1855cefcef3405f6c",
      "transactionIndex": "0x8c",
      "blockHash": "0xe0b1e6a6a1b56fe61f7808c753511e40462af197e0801cbb084ce96ece83768c",
      "blockNumber": "0xa3babc",
      "gasUsed": "0x2cac4",
      "effectiveGasPrice": "0x3887a2",
      "from": "0x4da7f8cf87f407b40772bda5e8b6a9e79255c396",
      "to": "0xf9ffdd075ce3f3c49d6a9ae4c103cbd28222d952",
      "contractAddress": null
    }
  ],
  "libraries": [],
  "pending": [],
  "returns": {},
  "timestamp": 1777129069170,
  "chain": 11155111,
  "commit": null
}